{
  "contractName": "SimpleContract",
  "abi": [
    {
      "constant": true,
      "inputs": [],
      "name": "message",
      "outputs": [
        {
          "internalType": "uint256",
          "name": "",
          "type": "uint256"
        }
      ],
      "payable": false,
      "stateMutability": "view",
      "type": "function"
    },
    {
      "constant": false,
      "inputs": [
        {
          "internalType": "uint256",
          "name": "messg",
          "type": "uint256"
        }
      ],
      "name": "setMessage",
      "outputs": [],
      "payable": false,
      "stateMutability": "nonpayable",
      "type": "function"
    },
    {
      "constant": true,
      "inputs": [],
      "name": "Toast",
      "outputs": [
        {
          "internalType": "string",
          "name": "",
          "type": "string"
        }
      ],
      "payable": false,
      "stateMutability": "pure",
      "type": "function"
    }
  ],
  "bytecode": "0x608060405234801561001057600080fd5b50610197806100206000396000f3fe608060405234801561001057600080fd5b50600436106100415760003560e01c806333f171a914610046578063e1a4378e146100c9578063e21f37ce146100f7575b600080fd5b61004e610115565b6040518080602001828103825283818151815260200191508051906020019080838360005b8381101561008e578082015181840152602081019050610073565b50505050905090810190601f1680156100bb5780820380516001836020036101000a031916815260200191505b509250505060405180910390f35b6100f5600480360360208110156100df57600080fd5b8101908080359060200190929190505050610152565b005b6100ff61015c565b6040518082815260200191505060405180910390f35b60606040518060400160405280601481526020017f53696d706c6520546f617374204578616d706c65000000000000000000000000815250905090565b8060008190555050565b6000548156fea265627a7a72315820811affe06c5f423a682d0209fe294918b65405d1b95733fdf35c87d7d0994ed664736f6c63430005100032",
  "source": "//SPDX-License-Identifier: MIT\n\npragma solidity ^0.5.16;\n\n\n\n\ncontract SimpleContract {\n    uint public message;\n\n    function setMessage(uint messg) public {\n        message = messg;\n    }\n\n    function Toast() external pure returns(string memory){\n        return 'Simple Toast Example';\n    }\n}",
  "sourcePath": "/Users/mac/Documents/smart contracts/sc1/contracts/Simple.sol",
  "compiler": {
    "name": "solc",
    "version": "0.5.16+commit.9c3226ce.Emscripten.clang"
  },
  "schemaVersion": "3.2.3",
  "updatedAt": "2022-05-08T17:17:15.486Z",
  "devdoc": {
    "methods": {}
  },
  "userdoc": {
    "methods": {}
  }
}